:100000000C94A6000C94CE000C94CE000C94CE0060
:100010000C94CE000C94CE000C94CE000C94CE0028
:100020000C94CE000C94CE000C94CE000C94CE0018
:100030000C94CE000C94CE000C94CE000C94CE0008
:100040000C9428090C94CE000C94CE000C94CE0095
:100050000C94CE000C94CE000C94CE000C94CE00E8
:100060000C94CE000C94CE00000000002400270069
:100070002A0000000000250028002B0000000000DE
:1000800023002600290004040404040404040202DA
:100090000202020203030303030301020408102007
:1000A0004080010204081020010204081020000012
:1000B0000008000201000003040700000000000027
:1000C00000000086227E6D000002300663000440BE
:1000D00080523F065B4F666D7D277F6F00000048B2
:1000E00000535F777F393F79713D76061E69381579
:1000F000373F7367316D783E2A1D766E5B39640F2A
:100100000008205F7C585E7B316F74040E7530559B
:10011000545C7367506D781C2A1D766E47460670D6
:10012000013F065B4F666D7D077F6F777C395E7997
:10013000717950505C500000003F065B4F666D7D4A
:10014000077F6F777C395E797100600C11241FBEC8
:10015000CFEFD8E0DEBFCDBF21E0A4E7B1E001C022
:100160001D92A43AB207E1F711E0A0E0B1E0E4E0AB
:10017000FAE102C005900D92A437B107D9F710E05B
:10018000C6EAD0E004C02197FE010E94FA0CC53AED
:10019000D107C9F70E9472090C94AD0C0C940000B1
:1001A00080E480937C0080917A00806480937A0060
:1001B00080917A0086FDFCCF809178009091790043
:1001C00008958FE090E00197F1F70895AF92BF9204
:1001D000CF92DF92EF92FF920F931F93CF93DF9313
:1001E0006C017B018B01040F151FEB015E01AE1842
:1001F000BF08C017D10759F06991D601ED91FC9164
:100200000190F081E02DC6010995892B79F7C50190
:10021000DF91CF911F910F91FF90EF90DF90CF90E2
:10022000BF90AF900895BF92CF92DF92EF92FF926E
:100230000F931F93CF93DF93EC01162F662379F072
:100240006A3069F06D3059F08F812E8130E0482F8F
:10025000082E000C550B421753070CF456C01F8193
:1002600011160CF045C02E81812F012E000C990B28
:1002700028171906E9F1E4F1F12CE12C8C858E1593
:100280001F0421F11CF16701CC0CDD1CEA85FB8504
:10029000EC0DFD1D80819181DC01ED91FC910488C4
:1002A000F589E02D09952A853B852C0D3D1DF90129
:1002B000181780F480819181DC01ED91FC91028816
:1002C000F389E02D20E040E0612F09958F818F5F59
:1002D0008F83C5CF80819181DC01ED91FC910488F1
:1002E000F589E02D0995181BBFEFEB1AFB0AC6CF65
:1002F0001F8290E080E0DF91CF911F910F91FF90DE
:10030000EF90DF90CF90BF900895962F9D7F9C3205
:1003100029F096EC960FB12C923040F41091060122
:10032000181614F481508F83BB24B3940F8107FDFA
:1003300031C0802F002E000C990B8217930754F5C3
:10034000F12CE12C8C858E151F0421F11CF1670125
:10035000CC0CDD1CEA85FB85EC0DFD1D80819181B7
:10036000DC01ED91FC910488F589E02D09952A8541
:100370003B852C0D3D1DF9010817A0F4808191816A
:10038000DC01ED91FC910688F789E02D2B2D412FA2
:10039000602F0995109306018F818F5F8F8381E015
:1003A00090E0A9CF80819181DC01ED91FC910488DE
:1003B000F589E02D0995081BBFEFEB1AFB0AC2CFA8
:1003C000DC0114968D919C91DC01ED91FC910280F1
:1003D000F381E02D09940F931F93CF93DF938C014A
:1003E000DC0114968D919C91DC01ED91FC910684C9
:1003F000F785E02D48E061E371E00995C8E0D0E0C1
:10040000F80186818C171D0671F06CF0848195814E
:10041000DC01ED91FC910484F585E02D40E06C2F2A
:1004200009952196EDCFDF91CF911F910F910895FE
:100430002F923F925F926F927F928F929F92AF9294
:10044000BF92CF92DF92EF92FF920F931F93CF93C1
:10045000DF936C017B015A01522EDB0114962D9023
:100460003C90D0E0C0E0622E712C88248394912CC3
:10047000F601268130E0C90186199709C817D90706
:10048000C4F5C215D305ACF584819581DC01ED91ED
:10049000FC91A289B3892C1B3D0B21503109A40189
:1004A00002C0440F551F2A95E2F74A215B2121E043
:1004B000452B09F420E0F70144815581C417D50785
:1004C000B0F4408151814115510589F04C0F5D1FF9
:1004D000FA013081E32F330FFF0BB097E00FF11FCC
:1004E00044916C2F650DFD0109952196C1CF30E037
:1004F000F1CFDF91CF911F910F91FF90EF90DF909F
:10050000CF90BF90AF909F908F907F906F905F90B3
:100510003F902F9008950F931F93DC0114968D91B7
:100520009C91DC01ED91FC910088F189E02D099509
:100530001F910F910895089590E080E008950F9322
:100540001F93CF93DF93EC01162F042FE881F981DD
:1005500002A0F3A1E02D64E40995E881F981048CFF
:10056000F58DE02DCE010995612F606CE881F98150
:1005700000A0F1A1E02DCE010995E881F98100A04C
:10058000F1A1E02D602FCE010995E881F981068C5B
:10059000F78DE02DCE01DF91CF911F910F9109943E
:1005A0001F93CF93DF93EC01162FE881F981048C20
:1005B000F58DE02D0995E881F98100A0F1A1E02DEC
:1005C000612FCE010995E881F981068CF78DE02D28
:1005D000CE01DF91CF911F910994089560E070E002
:1005E000CB010895FC01848108957F928F929F92A0
:1005F000AF92BF92CF92DF92EF92FF920F931F9331
:10060000CF93DF937C016A01722E8B01D0E0C0E0B2
:10061000A22EB12C88248394912CD70114968C910E
:1006200090E09C012A193B09C217D3070CF5F80189
:1006300041918F014423E1F08C1B9D0B01979401A4
:1006400002C0220F331F8A95E2F7C9018C219D2138
:1006500021E0892B09F420E06C2F670DD701ED9183
:10066000FC910688F789E02DC70109952196D5CF21
:10067000DF91CF911F910F91FF90EF90DF90CF907E
:10068000BF90AF909F908F907F900895CF92DF9210
:10069000EF92FF920F931F93CF93DF937C016B0137
:1006A000042F10E0D0E0C0E0C017D10781F0F601C0
:1006B000EC0FFD1F4491D701ED91FC910288F38965
:1006C000E02D20E06C2FC70109952196EDCFDF9139
:1006D000CF911F910F91FF90EF90DF90CF900895F1
:1006E000242FDC01ED91FC910288F389E02D40E09C
:1006F00009949F92AF92BF92CF92DF92EF92FF92B6
:100700000F931F93CF93DF937C01C1E0C42ED12CB4
:100710008AE0A82EB12CD70114964C914C17F0F01A
:1007200096010C2E02C0359527950A94E2F72170A8
:100730004C1BCB01B5010E94B00C962ED72FD701D0
:10074000ED91FC910084F185E02D01E211E0682F2C
:10075000C7010995692D7D2FCF5FDDCFDF91CF9147
:100760001F910F91FF90EF90DF90CF90BF90AF90CF
:100770009F9008950F931F93E62F642FEF70E00F63
:10078000F12FF11D4491DC01ED91FC910288F38978
:10079000E02D1F910F910994E42F440FFF0BEE55AC
:1007A000FF4F4491DC01ED91FC910288F389E02D2B
:1007B0000994362FDC01ED91FC910480F581E02D48
:1007C00060E0211160E8642B432F09940895242FE1
:1007D000DC0112963C911297431740F4ED91FC9185
:1007E00004A0F5A1E02D462F622F099408950F93E0
:1007F0001F93CF93DF93EC01E881F98102A0F3A16D
:10080000E02D60E40995E881F981048CF58DE02DF7
:10081000CE010995E881F98100A0F1A1E02D60ECFD
:10082000CE01099510E000E0E881F9818A81801706
:100830001106A9F0A4F000A0F1A1E02D60E0CE0126
:1008400009958B81893040F0E881F98100A0F1A100
:10085000E02D60E0CE0109950F5F1F4FE5CF068CBC
:10086000F78DE02DCE01DF91CF911F910F9109946B
:10087000DC01ED91FC9102A0F3A1E02D611106C015
:1008800060E8483008F047E0642B099468E8F9CF45
:100890000F931F93CF938C01DC01ED91FC91048C9D
:1008A000F58DE02D0995D801ED91FC9100A0F1A105
:1008B000E02D69E4C8010995D801ED91FC9106A0ED
:1008C000F7A1E02DC8010995C82FD801ED91FC9141
:1008D000068CF78DE02DC801099560E070E0CB0132
:1008E000C43470F0C83480F4C45461E070E080E037
:1008F00090E004C0660F771F881F991FCA95D2F732
:10090000CF911F910F910895C03510F4C854EDCFC9
:10091000C83510F4CC54E9CFC03610F4C055E5CF3B
:10092000C83610F4C455E1CFC03710F4C855DDCF38
:10093000C837D8F6CC55D9CF0F931F93CF93DF93F9
:10094000EC01062F483008F047E011E0140F183092
:1009500009F410E0E881F981048CF58DE02DCE01D9
:100960000995E881F98100A0F1A1E02D68E4CE01AC
:100970000995E881F98100A0F1A1E02D80E1189F9F
:10098000A00111248B8160E0873009F468E0402BDE
:10099000642BCE010995E881F981068CF78DE02D55
:1009A000CE01DF91CF911F910F9109940F931F9367
:1009B000CF93DF938C01D0E0C0E0D80112968C91E8
:1009C00012978C171D0661F05CF0ED91FC9104A06C
:1009D000F5A1E02D40E06C2FC80109952196EDCFDF
:1009E000DF91CF911F910F9108950F931F93CF9394
:1009F000DF93EC01162F042FE881F981048CF58D2B
:100A0000E02D0995612F660F6866E881F98100A0E5
:100A1000F1A1E02DCE010995E881F98100A0F1A1B5
:100A2000E02D602FCE010995E881F981068CF78DC4
:100A3000E02DCE01DF91CF911F910F9109940C947D
:100A4000E100833081F028F4813099F08230A9F000
:100A500008958730A9F08830C9F08430B1F48091CE
:100A600080008F7D03C0809180008F77809380000D
:100A7000089584B58F7784BD089584B58F7DFBCFAD
:100A80008091B0008F778093B00008958091B0007E
:100A90008F7DF9CFCF93DF93282F30E0F901E25516
:100AA000FF4F8491F901E656FF4FD491F901EA57BF
:100AB000FF4FC491CC23A1F081110E942105EC2F9E
:100AC000F0E0EE0FFF1FE458FF4FA591B491EC91B9
:100AD000ED2381E090E009F480E0DF91CF9108956B
:100AE00080E090E0FACF1F93CF93DF93282F30E080
:100AF000F901E255FF4F8491F901E656FF4FD49179
:100B0000F901EA57FF4FC491CC23A9F0162F8111A8
:100B10000E942105EC2FF0E0EE0FFF1FEE58FF4F73
:100B2000A591B4918FB7F894EC91111108C0D095AC
:100B3000DE23DC938FBFDF91CF911F910895DE2BD1
:100B4000F8CFFF920F931F93CF93DF93EC01F62E14
:100B500008E010E060E08E810E947305E881F98171
:100B6000028CF38DE02DCE0109956F2D61708D8182
:100B70000E947305E881F981028CF38DE02DCE018E
:100B80000995F69461E08E810E947305E881F981F0
:100B9000028CF38DE02DCE01099501501109D1F69B
:100BA000E881F981028CF38DE02DCE01DF91CF91A8
:100BB0001F910F91FF900994CF93DF93EC0161E0B7
:100BC0008F810E947305E881F981028CF38DE02DFD
:100BD000CE01DF91CF910994CF93DF93EC0160E0D8
:100BE0008F810E947305E881F981028CF38DE02DDD
:100BF000CE01DF91CF910994CF93DF93EC0160E0B8
:100C00008E810E94730560E08D810E947305E881EA
:100C1000F981028CF38DE02DCE01099561E08E8182
:100C20000E94730561E08D810E947305E881F9815E
:100C3000028CF38DE02DCE01DF91CF910994CF93FB
:100C4000DF93EC0161E08D810E94730561E08E818C
:100C50000E947305E881F981028CF38DE02DCE01AD
:100C6000099560E08D810E94730560E08E810E948D
:100C70007305E881F981028CF38DE02DCE01DF91BF
:100C8000CF910994CF93DF9390E0FC01E656FF4F9C
:100C900024918A579F4FFC0184918823C9F090E0EA
:100CA000880F991FFC01E859FF4FA591B491FC01F1
:100CB000EE58FF4FC591D49161110DC09FB7F894C4
:100CC0008C91209582238C938881282328839FBF31
:100CD000DF91CF910895623051F49FB7F8943C9121
:100CE000822F809583238C93E8812E2BEFCF8FB7B3
:100CF000F894EC912E2B2C938FBFEACFCF92DF92FA
:100D0000EF92FF921F93CF93DF93EC0160E08D8110
:100D10000E94420661E08D810E94730598E0C92E11
:100D2000D12C10E0E12EF12CF594E7941E2D60E01B
:100D30008E810E947305E881F981028CF38DE02D8C
:100D4000CE0109958D810E944A05892B09F0106812
:100D500061E08E810E947305E881F981028CF38D38
:100D6000E02DCE01099581E0C81AD108D9F661E0DD
:100D70008D810E94420660E08D810E947305812F63
:100D8000DF91CF911F91FF90EF90DF90CF9008956A
:100D9000EF92FF921F93CF93DF93EC0160E08E817F
:100DA0000E94730560E08D810E94420661E08D81A2
:100DB0000E94730588E0E82EF12C10E0110F61E02D
:100DC0008E810E947305E881F981028CF38DE02DFC
:100DD000CE0109958D810E944A05892B09F0116089
:100DE00060E08E810E947305E881F981028CF38DA9
:100DF000E02DCE01099581E0E81AF108F9F660E0EE
:100E00008E810E94730560E08D810E94420661E040
:100E10008D810E947305E881F981028CF38DE02DAC
:100E2000CE01099561E08E810E947305E881F98108
:100E3000028CF38DE02DCE0109958D810E944A052B
:100E4000F82E60E08E810E947305F11004C060E00E
:100E50008D810E94730561E08D810E944206812F81
:100E6000DF91CF911F91FF90EF900895FF920F9324
:100E70001F93CF93DF93EC01F62E08E010E060E0C3
:100E80008E810E947305E881F981028CF38DE02D3B
:100E9000CE0109956F2D661F6627661F8D810E9402
:100EA0007305FF0C61E08E810E947305E881F98172
:100EB000028CF38DE02DCE01099501501109F9F650
:100EC000E881F981028CF38DE02DCE010995E8814E
:100ED000F981028CF38DE02DCE01099560E08E81C1
:100EE0000E94730560E08D810E944206E881F981CD
:100EF000028CF38DE02DCE01099561E08E810E9478
:100F00007305E881F981028CF38DE02DCE010995FE
:100F10008D810E944A05811104C060E08D810E948C
:100F2000730561E08D81DF91CF911F910F91FF904B
:100F30000C944206789484B5826084BD84B5816047
:100F400084BD85B5826085BD85B5816085BDEEE6D1
:100F5000F0E0808181608083E1E8F0E010828081B0
:100F600082608083808181608083E0E8F0E080811E
:100F700081608083E1EBF0E0808184608083E0EB3E
:100F8000F0E0808181608083EAE7F0E08081846026
:100F90008083808182608083808181608083808182
:100FA000806880831092C10008953FB7F8948091C3
:100FB000790190917A01A0917B01B0917C0126B5D5
:100FC000A89B05C02F3F19F00196A11DB11D3FBF81
:100FD000BA2FA92F982F8827BC01CD01620F711D50
:100FE000811D911D42E0660F771F881F991F4A954A
:100FF000D1F708958F929F92AF92BF92CF92DF92D6
:10100000EF92FF926B017C010E94D5074B015C01BE
:10101000C114D104E104F104B9F00E94D5076819A4
:1010200079098A099B09683E73408105910580F31F
:1010300021E0C21AD108E108F10888EE880E83E0A9
:10104000981EA11CB11CE4CFFF90EF90DF90CF90D1
:10105000BF90AF909F908F900895EF92FF920F9363
:101060001F93CF93DF937C01C1E0D0E010E000E05C
:101070006C2F86E00E94730581E0C8276C2F8BE0FF
:101080000E94730564E670E080E090E00E94FA0739
:101090000F5F1F4FE016F10659F760E086E00E94EF
:1010A000730561E08BE0DF91CF911F910F91FF906D
:1010B000EF900C9473052FB7F894609175017091BF
:1010C000760180917701909178012FBF0895CF9399
:1010D000DF930E94D000C1E0D0E0843691056CF02F
:1010E000C2E0D0E0863222E092073CF0C3E0D0E0DC
:1010F0008032934014F0D0E0C0E08CE00E944A05BA
:10110000892B11F4C4E0D0E0CE01DF91CF91089596
:101110002F923F924F925F926F927F928F929F9207
:10112000AF92BF92CF92DF92EF92FF920F931F93F5
:10113000CF93DF9300D000D01F92CDB7DEB76B0105
:101140007C01C11481EED80685EFE80685E0F8063B
:1011500008F045C01D821C828AE0482E512C612C6B
:10116000712C30909D01AC81BD813A161B0609F0AF
:101170000CF456C0A0909B01B0909C01D501ED915C
:10118000FC91808491843A94BC813B1AC114D104AF
:10119000E104F104D9F0C701B601A30192010E9454
:1011A000C40C222E39834A835B8309E311E020E0DB
:1011B000432DC501F4010995C22CD980EA80FB803A
:1011C0008C819D8101969D838C83CBCF09E311E0B7
:1011D00020E0432D60E0C501F4010995F1CFE091D5
:1011E0009701F09198010684F785E02D87E991E059
:1011F0000F900F900F900F900F90DF91CF911F9154
:101200000F91FF90EF90DF90CF90BF90AF909F90A5
:101210008F907F906F905F904F903F902F900994A8
:101220000F900F900F900F900F90DF91CF911F9123
:101230000F91FF90EF90DF90CF90BF90AF909F9075
:101240008F907F906F905F904F903F902F90089578
:101250001F920F920FB60F9211242F933F938F93EB
:101260009F93AF93BF938091750190917601A09168
:101270007701B09178013091740123E0230F2D376D
:1012800058F50196A11DB11D20937401809375013D
:1012900090937601A0937701B093780180917901C2
:1012A00090917A01A0917B01B0917C010196A11DE2
:1012B000B11D8093790190937A01A0937B01B09343
:1012C0007C01BF91AF919F918F913F912F910F9092
:1012D0000FBE0F901F90189526E8230F0296A11DB0
:1012E000B11DD2CF0E949A0762E08CE00E944206B4
:1012F00061E085E00E94420661E085E00E9473059E
:101300008CE080937D0110927F0110927E0162E05B
:101310000E94420661E08BE00E94420661E086E0A6
:101320000E94420685E090E00E942D08FF24F3947D
:10133000CC24C394D12C26E9222E312C0E9467089C
:10134000039799F4C0919501D09196010E94670886
:10135000039759F4C330D10501F51092960110920C
:1013600095010E946708892BE1F780919501909182
:1013700096018130910509F445C108F445C08230D9
:10138000910509F4C1C1039709F42BC280E090E0F4
:10139000892BA1F20E940000D1CF2196D093960113
:1013A000C0939501C230D105D1F0C330D10511F001
:1013B0002197B9F60E945B0868537F4F8F4F9F4F6C
:1013C00060939101709392018093930190939401A3
:1013D0001092900188E891E00E94D604C2CF0E944A
:1013E0005B0868537F4F8F4F9F4F609391017093BD
:1013F000920180939301909394011092900188E858
:1014000091E00E94D604D6CF0E945B080091800133
:1014100010918101209182013091830106171707F5
:101420002807390758F5C0910001D09101010E94A9
:101430005B0864527A4F8F4F9F4F60938001709387
:10144000810180938201909383010E945B084B018C
:101450005C01809190018F2580939001882309F48D
:10146000A2C0219709F089C0609104017091050123
:10147000072E000C880B990B0E94880880900001B1
:10148000909001010091040110910501A0900201CA
:10149000B09003010E945B08C0917E01D0917F0152
:1014A000CC0FDD1F80917D010E944A05DE6F8C2BE1
:1014B0009D2B90937F0180937E0181159F4F09F0B2
:1014C00065CF81E08816910409F472C092E0891614
:1014D000910409F05BCF60E085E00E9473050E94F3
:1014E0005B082B013C014501BB0CAA08BB080E940C
:1014F0005B086419750986099709681579058A05D5
:101500009B05A8F361E085E00E9473050E945B08DB
:101510004B015C010E945B08681979098A099B09E3
:101520006A3F710581059105A8F360E085E00E949E
:1015300073050E945B084B015C012801110F6608CE
:1015400077080E945B08681979098A099B09641564
:10155000750586059705A8F361E085E00E9473058F
:1015600088E891E00E94D6046EEA78E080E090E09E
:101570000E94880883E090E042C06091020170916F
:101580000301072E000C880B990B0E9488080E940B
:101590005B08681979098A099B09643F71408105D4
:1015A0009105A8F361CFBE01DD0F880B990B64CFC5
:1015B00060E085E00E9473050E945B084B015C01BE
:1015C0002801110F660877080E945B0868197909DD
:1015D0008A099B096415750586059705A8F361E0DE
:1015E00085E00E94730588E891E00E94D60467E5D3
:1015F00074E080E090E00E94880881E090E00E9422
:101600002D08C4CE0E945B080091910110919201B7
:101610002091930130919401061717072807390785
:1016200000F50E945B0868537F4F8F4F9F4F609378
:101630009101709392018093930190939401809112
:1016400090018F2580939001882309F443C0609115
:10165000000170910101072E000C880B990B0E946C
:1016600088080E945B0800918401109185012091F7
:10167000860130918701061717072807390708F0F8
:1016800085CE0E946708019769F5809100019091CD
:10169000010101968330910514F590930101809327
:1016A00000016091000170910101072E000C880B70
:1016B000990B0E9488080E945B08625A7E4F8F4FE8
:1016C0009F4F60938401709385018093860190936E
:1016D00087015CCE88E891E00E94D604C2CF82E008
:1016E00090E0DBCF0E946708029709F04FCE80910F
:1016F00000019091010101978230910574F6D0921A
:101700000101C0920001CDCF0E945B0800919101C0
:1017100010919201209193013091940106171707BF
:1017200028073907F8F40E945B0868537F4F8F4FF2
:101730009F4F6093910170939201809393019093D6
:101740009401809190018F2580939001882379F1F5
:101750006091020170910301072E000C880B990B18
:101760000E9488080E945B08009184011091850105
:10177000209186013091870106171707280739073E
:1017800008F004CE0E9467080197C9F48091020115
:101790009091030101968333910574F490930301B2
:1017A0008093020160910201709103017ECF88E86D
:1017B00091E00E94D604D6CF82E390E0EFCF0E9462
:1017C0006708029709F0E2CD809102019091030130
:1017D00001971816190614F3D0920301C092020162
:1017E000E1CF0E945B08009191011091920120913C
:1017F0009301309194010617170728073907F8F469
:101800000E945B0868537F4F8F4F9F4F60939101F9
:101810007093920180939301909394018091900131
:101820008F2580939001882359F160910401709174
:101830000501072E000C880B990B0E9488080E9456
:101840005B080091840110918501209186013091FF
:101850008701061717072807390708F097CD0E9458
:1018600067080197D9F480910401909105010196D0
:101870008739910554F4909305018093040109C0C0
:1018800088E891E00E94D604DACF309205012092D8
:101890000401609104017091050107CF0E9467085F
:1018A000029709F073CD8091040190910501019791
:1018B0001816190604F3D0920501C0920401E9CF6D
:1018C0000F931F93CF93DF93C8E8D1E08FE191E0AE
:1018D0009983888318E01B831D8387E08E831F8391
:1018E00004E00A830C8361E088E00E94420661E024
:1018F00087E00E94420661E088E00E94420661E0C3
:1019000088E00E94730561E087E00E9473058BE424
:1019100091E099838883CE010E94D6041B8343E023
:1019200061E0CE010E949C04E7E9F1E0138212829B
:101930008BE091E091838083178281E08487D58357
:10194000C4830683D187C0878FE991E0938782871C
:10195000DF91CF911F910F910895F8940C94000D91
:1019600097FB072E16F4009407D077FD09D00E944C
:10197000E60C07FC05D03EF4909581959F4F0895A5
:10198000709561957F4F0895A1E21A2EAA1BBB1B8B
:10199000FD010DC0AA1FBB1FEE1FFF1FA217B3073B
:1019A000E407F50720F0A21BB30BE40BF50B661F51
:1019B000771F881F991F1A9469F760957095809515
:1019C00090959B01AC01BD01CF010895AA1BBB1BE3
:1019D00051E107C0AA1FBB1FA617B70710F0A61B2F
:1019E000B70B881F991F5A95A9F780959095BC0150
:1019F000CD010895EE0FFF1F0590F491E02D09949D
:041A0000F894FFCF88
:101A040001001E00550020000000001301E6009CA8
:101A1400029B02E0018B021802EB01000000003877
:101A240004F703E703E603BA03790370034603F5F7
:101A340002D903F202CC03EE02ED02EC05DC05A1AF
:101A440005D0029F027E06000000009C04D604E735
:101A540003E603BA03790370034603F502D903F2DC
:101A640002CC0348041F051F06FC053607D002F507
:041A740004C806009C
:00000001FF
